:020000040800F2
:10000000A00800209D200008E9020008EB0200087B
:10001000EF020008F3020008F702000800000000E9
:10002000000000000000000000000000FB020008CB
:10003000FD02000800000000FF02000801030008A4
:10004000B7200008B7200008B7200008B720000834
:10005000B7200008B7200008B7200008B720000824
:10006000B7200008B7200008E3110008B7200008F7
:10007000B7200008B7200008B7200008B720000804
:10008000B7200008B7200008B7200008B7200008F4
:10009000B7200008B7200008B72000082B1200087E
:1000A000B7200008B7200008B7200008B7200008D4
:1000B00099190008B7200008B7200008B7200008E9
:1000C000B7200008B7200008B7200008B7200008B4
:1000D000B720000813200008B7200008B720000848
:1000E000B5120008B7200008B7200008B7200008A4
:1000F000B7200008B7200008B7200008B720000884
:10010000B7200008B7200008B7200008B720000873
:10011000B7200008B7200008B7200008B720000863
:10012000B7200008B7200008B7200008B720000853
:10013000B7200008B7200008B7200008B720000843
:10014000B7200008B7200008B7200008B720000833
:10015000B7200008B7200008B7200008B720000823
:10016000B7200008B7200008B7200008B720000813
:10017000B7200008B7200008B7200008B720000803
:10018000B7200008B720000800F002F800F04CF893
:100190000AA090E8000C82448344AAF10107DA45E2
:1001A00001D100F041F8AFF2090EBAE80F0013F0E8
:1001B000010F18BFFB1A43F001031847A08E00007F
:1001C000C08E0000103A24BF78C878C1FAD8520710
:1001D00024BF30C830C144BF04680C6070470000C1
:1001E0000023002400250026103A28BF78C1FBD840
:1001F000520728BF30C148BF0B607047662906F020
:100200002385642904F0E681002070471FB506F0BD
:1002100016FD04F0C9FC04000020002105F0E4FEF6
:10022000E0601FBD10B510BD04F0DAFD1146FFF708
:10023000EDFF00F009F804F0F8FD03B4FFF7F2FF5A
:1002400003BC01F087FE00002DED048B88B01F4831
:10025000006840F470001D49086040F24734A8204F
:1002600001F0F6FD01F015F901F078FC4FF4A06003
:1002700001F034FF4FF4E13001F079FE14A004F0F6
:1002800069F92046092101F04DFA2021684604F061
:10029000DDF91AE01E21002001F08CFD06461E212A
:1002A000012001F087FD3518284606F0FAF841ECE8
:1002B000190B9FED0A0B53EC102B06F059F941EC8A
:1002C000180B06F0BFF807490860E3E788ED00E087
:1002D000B4AEBFDAD5FDB3A30A00000000000000F1
:1002E0000000E03F0C000020704700BFFEE700BFA9
:1002F000FEE700BFFEE700BFFEE7704770477047AC
:10030000704700000CB5002001900090764800680E
:1003100040F480307449086000BF7348006800F4FE
:10032000003000900198401C0190009818B9019885
:10033000B0F5A04FF1D16C48006800F4003010B166
:100340000120009001E0002000900098012846D193
:1003500065484030006840F0805063494031086093
:100360006248006840F44040604908605E480830D8
:1003700000685D49083108600846006840F40040A4
:1003800008600846006840F4A05008605848091FFB
:100390000860081F006840F08070091F086000BFF7
:1003A0005148006800F000700028F9D040F2057054
:1003B000504908604C480830006820F003004A4962
:1003C000083108600846006840F00200086000BF7D
:1003D00045480830006800F00C000828F8D10CBD32
:1003E00010B54548006840F47000434908603E4835
:1003F000006840F001003C49086000203A4908319B
:100400000860394800683D490840374908603C4861
:10041000091D0860081F006820F48020091F08607B
:10042000002031490C310860FFF76CFF4FF000608D
:1004300031498039086010BD70B5002000220223C8
:1004400000240221284D08352D6805F00C0020B14C
:10045000042806D0082834D107E02A4D2A4E3560FA
:1004600033E02A4D284E35602FE01F4D2D1D2D689D
:10047000C5F380541C4D2D1D2D6805F03F0154B16E
:10048000224DB5FBF1F5184E361D3668C6F38816B9
:1004900005FB06F209E01B4DB5FBF1F5124E361DCA
:1004A0003668C6F3881605FB06F20F4D2D1D2D6824
:1004B000C5F301456D1C6B00B2FBF3F5124E3560C0
:1004C00003E0104D104E356000BF00BF064D0835EB
:1004D0002D68C5F303150E4E705D0B4D2D68C5409C
:1004E000094E356070BD00000038024000700040C9
:1004F00008544007003C024088ED00E0FFFFF6FE94
:10050000103000240024F4001000002000127A00B3
:10051000140000201CB501215F2002F073F94FF494
:100520002040009001208DF8040000208DF8060086
:1005300003208DF8050001208DF807006946C548A5
:1005400001F0C2FE4FF42041C24801F039FF4FF4E0
:100550002A40009001208DF8040000208DF806004C
:1005600003208DF8050001208DF807006946BA4880
:1005700001F0AAFE4FF42A41B74801F021FF1CBD4B
:1005800070B504464FF40051B34801F01BFF00253D
:100590001BE04FF40051AF4801F014FF04F080005D
:1005A00028B14FF40041AB4801F00AFF04E04FF4DA
:1005B0000041A84801F006FF4FF40051A54801F0A2
:1005C000FFFE6006040E681CC5B2082DE1DB4FF487
:1005D0000051A14801F0F4FE70BD10B5044620465C
:1005E000FFF7CEFF10BD10B504462012FFF7C8FF7D
:1005F000E0B2FFF7C5FF10BD10B504464FF400612F
:10060000954801F0DFFE2046FFF7BAFF4FF4006186
:10061000914801F0D5FE10BD2DE9F04104460D468C
:1006200016461F462A20FFF7E7FFA11C88B2FFF7F6
:10063000DAFFB11C88B2FFF7D6FF2B20FFF7DCFFF3
:10064000E91C88B2FFF7CFFFF91C88B2FFF7CBFF98
:100650002C20FFF7D1FFBDE8F08110B5FFF75AFF5E
:100660004FF400717C4801F0ADFE642001F052FCB3
:100670004FF40071784801F0A3FE642001F04AFCB9
:100680004FF40041744801F09BFE642001F042FCED
:100690001120FFF7B1FF782001F03CFCB120FFF7FB
:1006A000ABFF0220FFF799FF3520FFF796FF3620BA
:1006B000FFF793FFB220FFF79FFF0220FFF78DFFA8
:1006C0003520FFF78AFF3620FFF787FFB320FFF7BB
:1006D00093FF0220FFF781FF3520FFF77EFF3620D2
:1006E000FFF77BFF0220FFF778FF3520FFF775FF4C
:1006F0003620FFF772FFB420FFF77EFF0320FFF7DD
:100700006CFFC020FFF778FFA220FFF766FF0220F2
:10071000FFF763FF8420FFF760FFC120FFF76CFF46
:10072000C520FFF75AFFC220FFF766FF0D20FFF735
:1007300054FF0020FFF751FFC320FFF75DFF8D201E
:10074000FFF74BFF2A20FFF748FFC420FFF754FFB5
:100750008D20FFF742FFEE20FFF73FFFC520FFF798
:100760004BFF0A20FFF739FF3620FFF745FFC8206F
:10077000FFF733FFE020FFF73FFF1220FFF72DFFC9
:100780001C20FFF72AFF1020FFF727FF1820FFF794
:1007900024FF3320FFF721FF2C20FFF71EFF252029
:1007A000FFF71BFF2820FFF718FF2820FFF715FF92
:1007B0002720FFF712FF2F20FFF70FFF3C20FFF746
:1007C0000CFF0020FFF709FF0320FFF706FF0320BF
:1007D000FFF703FF1020FFF700FFE120FFF70CFFFA
:1007E0001220FFF7FAFE1C20FFF7F7FE1020FFF79C
:1007F000F4FE1820FFF7F1FE2D20FFF7EEFE282073
:10080000FFF7EBFE2320FFF7E8FE2820FFF7E5FEC9
:100810002820FFF7E2FE2620FFF7DFFE2F20FFF75C
:10082000DCFE3B20FFF7D9FE0020FFF7D6FE0320B9
:10083000FFF7D3FE0320FFF7D0FE1020FFF7CDFE19
:100840003A20FFF7D9FE0520FFF7C7FE2920FFF762
:10085000D3FE10BD00040240000C02402DE9F04719
:1008600006460F4614461D46DDF820A0681E83B2DA
:10087000601E82B239463046FFF7CEFEB8460EE023
:10088000B14606E05046FFF7AEFE09F101001FFA3F
:1008900080F9A145F6DB08F101001FFA80F8A845B0
:1008A000EEDBBDE8F08770B504460D4616462B46D4
:1008B000224629462046FFF7AFFE3046FFF793FE5B
:1008C00070BD2DE9FF4F85B081468A460020039018
:1008D00083460798A0EB09040898A0EB0A06CDF818
:1008E0000890CDF804A0002C01DD012705E00CB92B
:1008F000002702E04FF0FF376442002E02DD4FF088
:10090000010806E016B94FF0000802E04FF0FF388A
:100910006642B44201DD254600E0354600200490E1
:100920001EE0019A91B2029A90B2129AFFF7BBFFB1
:10093000039820440390B3440398A84205DD03982C
:10094000401B0390029838440290AB4504DDABEBAA
:10095000050B0198404401900498401C80B204901B
:10096000691C04988842DCDB09B0BDE8F08F2DE9F2
:10097000F84305460E4617469846089C33463A46C5
:10098000314628460094FFF79CFF43462A463146ED
:1009900028460094FFF795FF43463A4641462846CD
:1009A0000094FFF78EFF43463A463146384600949E
:1009B000FFF787FFBDE8F8832DE9F04706460F46AD
:1009C000904699460025444641E07A1B91B2321B7D
:1009D00090B24A46FFF767FF7A1B91B2321990B284
:1009E0004A46FFF760FF3A1991B2721B90B24A462D
:1009F000FFF759FF3A1B91B2721B90B24A46FFF7BC
:100A000052FF7A1991B2321990B24A46FFF74BFF62
:100A10003A1B91B2721990B24A46FFF744FF3A1955
:100A200091B2721990B24A46FFF73DFF7A1991B21E
:100A3000321B90B24A46FFF736FF6D1C05FB05F0EE
:100A400004FB040108FB08F0814200DD641EA5429E
:100A5000BBDDBDE8F0872DE9FE4F0646894692468C
:100A60009B460D9C00962046E11704EB5171C9107E
:100A7000614389B2019105200290002565E005EBF4
:100A80008510F94911F810009AF80010884259D1E0
:100A900005EB8510F44901EB400040789AF801100D
:100AA00088424FD109EB0400401E83B23019401E2A
:100AB00082B249463046FFF7AFFD00273FE04FF0D6
:100AC000000836E00E9898B905EB8510E64901EB71
:100AD0004000801CC05D012101FA08F1084018B1F6
:100AE0005846FFF780FD20E00C98FFF77CFD1CE0E6
:100AF00005EB8510DC4901EB4000801CC05D012145
:100B000001FA08F1084020B15A4649463046FFF73D
:100B1000CAFE701C86B20098301AA04205D1009E11
:100B200009F101001FFA80F906E008F1010000F068
:100B3000FF08B8F1080FC5DB00BF781CC7B20198E9
:100B40008742BCDB00BF681C85B20298854296DBF9
:100B5000BDE8FE8F2DE9FE4F0646894692469B462C
:100B60000D9C00962046E11704EB5171C9106143BA
:100B700089B201910520029000256DE005EB85000A
:100B800000EB4510B94911F810009AF8001088429E
:100B90005FD105EB850000EB4510B44901EB400047
:100BA00040789AF80110884253D109EB0400401EA6
:100BB00083B23019401E82B249463046FFF72CFD01
:100BC000002743E04FF000083AE00E98A8B905EB83
:100BD000850000EB4510A54901EB4000801CC05D7D
:100BE000012101FA08F1084018B15846FFF7FBFC53
:100BF00022E00C98FFF7F7FC1EE005EB850000EB08
:100C000045109A4901EB4000801CC05D012101FAAA
:100C100008F1084020B15A4649463046FFF743FEE6
:100C2000701C86B20098301AA04205D1009E09F1CE
:100C300001001FFA80F906E008F1010000F0FF084A
:100C4000B8F1080FC1DB00BF781CC7B2019887421A
:100C5000B8DB00BF681C85B2029885428EDBBDE818
:100C6000FE8F2DE9FE4F0646894692469B460D9C17
:100C700000962046E11704EB5171C910614389B217
:100C8000019105200290002565E005EB05107849EB
:100C900011F810009AF80010884259D105EB0510A0
:100CA000734901EB400040789AF8011088424FD117
:100CB00009EB0400401E83B23019401E82B249463F
:100CC0003046FFF7A9FC00273FE04FF0000836E070
:100CD0000E9898B905EB0510654901EB4000801CA2
:100CE000C05D012101FA08F1084018B15846FFF72C
:100CF0007AFC20E00C98FFF776FC1CE005EB051071
:100D00005B4901EB4000801CC05D012101FA08F144
:100D1000084020B15A4649463046FFF7C4FD701CD2
:100D200086B20098301AA04205D1009E09F1010058
:100D30001FFA80F906E008F1010000F0FF08B8F1A1
:100D4000080FC5DB00BF781CC7B201988742BCDB27
:100D500000BF681C85B20298854296DBBDE8FE8F15
:100D60002DE9FE4F8046894615469A46DDE90D4736
:100D70000C9E2AE0102C09D153462A46494640468B
:100D8000CDE901470096FFF76CFF19E0182C09D157
:100D900053462A4649464046CDE901470096FFF7AB
:100DA000D9FE0DE0202C09D153462A46494640463B
:100DB000CDE901470096FFF74EFE01E0BDE8FE8F4A
:100DC000AD1C08EB04001FFA80F828780028D1D168
:100DD00000BFF3E72DE9FF4F83B005468A4617466B
:100DE000119CAB46204604EBD071C1F34706304658
:100DF000F11706EB5171C910614389B20191A7F156
:100E00002000C7B20AEB0400401E83B2A819401E9E
:100E100082B251462846FFF7FFFB4FF0000954E02D
:100E2000102C06D1134800EB071010F809000290AF
:100E30000BE0202C06D1104800EB871010F80900B9
:100E4000029002E007B0BDE8F08F4FF0000834E0F8
:100E50001298B8B9012000FA08F00299084068B168
:100E60000698FFF7C0FB24E0188C0008A68A00084B
:100E7000FC8900084C6C00083C7200081098FFF7D1
:100E8000B2FB16E0012000FA08F00299084020B1F8
:100E900051462846069AFFF706FD681C85B2A5EB69
:100EA0000B00B04205D15D460AF101001FFA80FA3D
:100EB00006E008F1010000F0FF08B8F1080FC7DBF9
:100EC00000BF09F101001FFA80F901988145A7DBF5
:100ED00000BFB7E72DE9FE4F06460F461446984679
:100EE000DDE90D5ADDF8309010E0CDE9015ACDF87A
:100EF00000902278434639463046FFF76BFF28467C
:100F000005EBD07106EB61018EB2641C20780028DD
:100F1000EBD1BDE8FE8F10B50246012000E0504342
:100F20000B00A1F10104E1B2F9D110BD2DE9FF4F91
:100F300085B0074691461D46DDE913A600200490C2
:100F4000304606EBD071C1F3470B002434E0281B78
:100F5000401EC1B20A20FFF7DEFFB9FBF0F00A2104
:100F6000B0FBF1F201FB12080498A0B9681EA04280
:100F700011DDB8F1000F0CD1002004FB0B71CDE99D
:100F800000A6029088B22022129B0699FFF722FF4A
:100F900010E001200490002008F13001CAB204FBE7
:100FA0000B71CDE900A6029088B2129B0699FFF75B
:100FB00011FF00BF601CC4B2AC42C8DB09B0BDE881
:100FC000F08F2DE9FF4F2DED020B2DED028B83B03D
:100FD0000746B0EE408A1446DDE91486304606EB3B
:100FE000D071C1F3470A9FED680A28EE000ABCEEF3
:100FF000C00A10EE100A1FFA80FB002530E0601BCB
:10100000401EC1B20A20FFF786FFBBFBF0F00A21A9
:10101000B0FBF1F201FB1209A01EA84210D1002082
:10102000A11E01FB0A71CDE90086029088B22E2232
:101030000A9B0899FFF7CEFE681CC5B2601CC4B2BB
:10104000002009F13001CAB205FB0A71CDE9008622
:10105000029088B20A9B0899FFF7BCFE681CC5B2D3
:10106000A542CCDB03B0BDEC028B06B0BDE8F08F2F
:101070002DE9FF4F2DED020B2DED028B83B00746BE
:10108000B0EE408A1446DDE91486304606EBD07196
:10109000C1F3470A9FED3D0A28EE000ABCEEC00AE4
:1010A00010EE100A1FFA80FB002530E0601B401E86
:1010B000C1B20A20FFF72FFFBBFBF0F00A21B0FB03
:1010C000F1F201FB1209E01EA84210D10020E11E3E
:1010D00001FB0A71CDE90086029088B22E220A9B9C
:1010E0000899FFF777FE681CC5B2601CC4B20020E7
:1010F00009F13001CAB205FB0A71CDE90086029000
:1011000088B20A9B0899FFF765FE681CC5B2A54224
:10111000CCDB03B0BDEC028B06B0BDE8F08F2DE94F
:10112000F05F0746884615461E46DDF828900024E5
:1011300008EB0600401E83B27819401E82B2414679
:101140003846FFF769FAA24619E04FF0000B10E0AD
:1011500019F81400FFF741FA012101EB440119F8D5
:101160000100FFF73AFA601C84B20BF101001FFA8C
:1011700080FBB345ECDB0AF101001FFA80FAAA45B7
:10118000E3DBBDE8F09F00000000C84200007A44A5
:101190000EB500F0FDF80121880301F08DFB002160
:1011A000084601F0BEFE0120019000208DF80800E5
:1011B00008208DF8090001208DF80A0001A802F02E
:1011C000FDFA06208DF8000000208DF801000220B5
:1011D0008DF8020001208DF80300684600F083FFBF
:1011E0000EBD1CB5282000F095FE102002F04CFB2F
:1011F000B8B1644890ED000AF6EE000A30EE200A1D
:1012000080ED000A10204FF6FF714FF4784304225E
:10121000CDE900105B4890ED000A50211420FFF743
:1012200027FF102002F03BFB1CBD1CB5142000F072
:1012300071FE202002F028FBB8B1524890ED000A60
:10124000F6EE000A30EE600A80ED000A10204FF63C
:10125000FF714FF478430422CDE90010494890ED26
:10126000000A50211420FFF703FF4FF4007002F032
:101270000BFBB8B1444890ED000AF6EE000A30EEE0
:10128000200A80ED000A10204FF6FF714FF47843DA
:101290000422CDE900103C4890ED000A50211420B2
:1012A000FFF7E6FE202002F0FAFA4FF4007002F099
:1012B000F6FA1CBD1CB5142000F02CFE4FF4806023
:1012C00002F0E2FAB8B1304890ED000AF6EE000AFA
:1012D00030EE600A80ED000A10204FF6FF714FF4E7
:1012E00078430422CDE90010274890ED000A5021F0
:1012F0001420FFF7BDFE4FF4006002F0C5FAB8B14C
:10130000224890ED000AF6EE000A30EE200A80ED49
:10131000000A10204FF6FF714FF478430422CDE904
:1013200000101A4890ED000A50211420FFF7A0FE8B
:101330004FF4805002F0A8FAB8B1144890ED000ABA
:10134000F6EE000A30EE600A80ED000A10204FF63B
:10135000FF714FF478430422CDE900100B4890ED63
:10136000000A50211420FFF783FE4FF4806002F042
:1013700096FA4FF4006002F092FA4FF4805002F0B7
:101380008EFA1CBD24000020280000202C00002024
:101390001CB50121102001F035FA41F63C00009007
:1013A00000208DF8040003208DF8050001208DF841
:1013B00007006946434800F087FF1CBD10B504468E
:1013C00014B10120404908703F48007800283FD000
:1013D0003E48006898B13D48001D006878B13B4820
:1013E0001430006858B139481830006838B13748AF
:1013F0001C30006818B135482030006840BB05201B
:1014000000F088FD0020304908703048006808B9B5
:10141000012010BD2D48001D006808B90220F8E722
:101420002A481430006808B90320F2E7274818302A
:10143000006808B90420ECE724481C30006808B9AB
:101440000520E6E721482030006800BB0620E0E7E1
:101450001E48006801281AD11C48001D0068012898
:1014600015D11A4814300068012810D117481830D7
:10147000006801280BD115481C300068012806D1EE
:10148000124820300068012801D10F49087000205F
:10149000BFE71CB50121022001F0B4F90120009042
:1014A0008DF8040003208DF8050002208DF8070058
:1014B0006946074800F008FF0121054800F080FF59
:1014C0001CBD00000010024030000020100241420C
:1014D0000004024070B52DED088B0446F0EE409AF2
:1014E000B0EE60AA0D460220062827D2DFE800F001
:1014F00026030A11181FB3EE048ADFED688A9FEDF8
:10150000679A1BE09FED668ADFED668A9FED639A1E
:1015100014E09FED638ADFED618A9FED609A0DE034
:10152000B2EE048ADFED5D8A9FED5C9A06E0B1EED3
:10153000048ADFED5A8A9FED599A00BF00BF3AEE48
:10154000690A594880ED000A584890ED000A56484B
:10155000D0ED000A30EE200A544880ED000A5248CF
:1015600090ED000A28EE000A5048D0ED000A08EE7F
:10157000A00A4F4800EB8400D0ED000A4A4890EDE5
:10158000001A71EE600A09EE200A4A4800EB840056
:10159000D0ED000A30EE200A464800EB840080EDD2
:1015A000000A454800EB840090ED000A404800EB3B
:1015B000840080ED000A3C4890ED000A3E4800EBB4
:1015C000840080ED000A1AEE100A05F0C7FA41EC1B
:1015D0001B0B53EC1B2B39A002F0BCFF19EE900A39
:1015E00005F0BCFA41EC1B0B53EC1B2B36A002F0B0
:1015F000B1FF2D48006805F0B1FA41EC1B0B53EC2C
:101600001B2B35A002F0A6FF2848006805F0A6FABB
:1016100041EC1B0B53EC1B2B32A002F09BFF264826
:1016200000EB840090ED000A10EE101A084605F059
:1016300095FA41EC1B0B53EC1B2B2EA002F08AFFFA
:101640001B4800EB840090ED000A10EE101A0846CB
:1016500005F084FA41EC1B0B53EC1B2B29A002F084
:1016600079FF144800EB840090ED000A10EE101A88
:10167000084605F073FA41EC1B0B53EC1B2B26A01C
:1016800002F068FF0B4800EB840090ED000ABDEE0D
:10169000C00A10EE100ABDEC088B70BD00000000FF
:1016A00000004842CDCCCC3E340000204400002055
:1016B0003C00002040000020380000207461726768
:1016C0006574202025660A006D6561737572656416
:1016D000202025660A0000006269617320202566CB
:1016E0000A00000073756D5F6572726F72202025AD
:1016F000660A00006C6173742062696173202025A2
:10170000660A000070726576696F757320626961A0
:1017100073202025660A0000726573756C7420259D
:10172000660A000030B52DED048B8FB004460D46DF
:101730000121102001F066F80121084601F0BCF8F3
:1017400001220821724800F04AFE01220921704856
:1017500000F045FE01220A216D4800F040FE012202
:101760000B216B4800F03BFE01220C21684800F081
:1017700036FE01220D21664800F031FE4FF47C5008
:101780000D9002208DF8380003208DF839000020DC
:101790008DF83A000DA95E4800F096FD0B94ADF867
:1017A00028500020ADF83000ADF82A008DF8320046
:1017B0000AA9584802F029F97020ADF81400204613
:1017C00004F086FE41EC190B9FED530B53EC102BEC
:1017D00004F0CEFE41EC180B04F034FE079000201C
:1017E000ADF820000120ADF816000020ADF8220071
:1017F0000420ADF818000020ADF82400ADF8260054
:1018000005A9444802F096F94FF40060ADF80400D1
:101810004010ADF806000020ADF808000820ADF833
:101820000A000020ADF80C004FF40050ADF80E0097
:101830004000ADF8100001A9364802F047FD08212C
:10184000344802F004FB0121324802F049F9012139
:10185000304802F063F901212E4802F050FD0FB02C
:10186000BDEC048B30BD70B52DED108B82B00546FC
:101870000E46B0EE408A002444E0284604F028FEDC
:1018800041EC1D0B204604F023FE41EC1F0B9FEDA5
:10189000240B53EC102B04F06BFE41EC1E0B53ECAD
:1018A0001D2B04F077FC41EC1C0B9FED1F0B53EC40
:1018B000102B04F05DFE41EC1B0B9FED1D0B53EC58
:1018C000102B04F055FE41EC1A0BB0EE4A0AF0EE74
:1018D0006A0A03F0C5FEB0EE409AF0EE609A18EE88
:1018E000100A05F03BF953EC192BCDE900019DEDF1
:1018F000000B51EC100B04F03BFE06EBC40203C2DC
:10190000601C84B2AC42B8DB02B0BDEC108B70BD81
:101910000010024000000140000000000000E03F15
:10192000000000000000F03F000000000000004048
:10193000182D4454FB2109407FB505460C46012172
:10194000084600F0A8FF0295ADF804400020ADF86D
:101950000C00ADF8060001A94FF0804002F055F8E8
:101960001C208DF8000000208DF8010001208DF86A
:1019700002008DF80300684600F0B5FB01218807DE
:1019800002F0F8FC01221146900702F0DFFC012171
:10199000880702F0C3F87FBD70B52DED048B0121DF
:1019A000880702F0EAFC00287ED0012440F247318B
:1019B000DFED4A0A4A4890ED000AB8EEC00A00205E
:1019C000FFF788FD054604F06CFD41EC190B9FED17
:1019D000450B53EC102B04F0CBFD41EC180B04F03D
:1019E00031FD424908600846006804F05AFD41ECA8
:1019F000190B9FED3F0B53EC102B04F017FB41EC40
:101A0000180B04F01FFD3C490860084601683BA024
:101A100002F0A0FD3848006804F043FD41EC180BCB
:101A20009FED390B53EC102B04F0A0FE04D240F2D2
:101A30004B20314908600FE02F48006804F031FD69
:101A400041EC180B9FED320B53EC102B04F054FDBE
:101A500002D2FB2028490860274801682E4802F07E
:101A6000C2F92548016825A002F074FD1F480168ED
:101A70002AA002F06FFD40F2A3112BA002F06AFD34
:101A8000174801682BA002F065FD2E48006805F09C
:101A900065F841EC180B53EC182B2BA002F05AFD03
:101AA0002D480068401C00E010E02B490860084603
:101AB00000684FF4C87190FBF1F201FB1200264957
:101AC00008604FF47A7000F025FA00BF0121880702
:101AD00002F064FCBDEC048B70BD0000172D59456D
:101AE0000C00002079E9263108AC7C3F0000002082
:101AF0000000000000387A40480000204F75745FF5
:101B000050776D3A25640A009A99999999F9844019
:101B10009A99999999F964400000014041435F4DB9
:101B200041583A25640A0000504552494F44202547
:101B3000640A0000B5E7C1F7B2E2C1BFD6B52564BB
:101B40000A00000008000020B5E7C1F7BCC6CBE3DF
:101B5000D6B525660A0A0A004C00002000B59BB0E5
:101B60000121B14800F04EFE0121080200F0A4FE60
:101B700000200090AD480190AD48029000200390F5
:101B80003C200490002005904FF4806006904000B7
:101B90000790800008904011099040020A900020B0
:101BA0000B9001200C9000200D900E906946A148EA
:101BB00001F0C4FC01219F4801F0FAFC0F201990AC
:101BC00003208DF8680000208DF86B0019A99A4851
:101BD00000F07AFB002015904FF470601890002000
:101BE00017904FF48030169015A801F00DFA0020E0
:101BF0000F9001208DF840008DF8410000201190D9
:101C00001290139004208DF850000FA987484C388B
:101C100001F0CBF901231A460A2184484C3801F01F
:101C20004AFA012302220B2180484C3801F043FA82
:101C3000012303220C217D484C3801F03CFA00239B
:101C400004220D2179484C3801F035FA01217748FA
:101C50004C3801F0DBFA012174484C3801F0CBFA22
:101C6000012172484C3801F0E6F970484C3801F017
:101C70007EFA1BB000BD30B501460023002207E00C
:101C80006B4800EBC20030F811402344501CC2B234
:101C90000F2AF5DB0F20B3FBF0F0684D25F811009B
:101CA0000023284630F8110030BD70B506460024E8
:101CB000002505E03046FFF7DEFF0444681CC5B28E
:101CC000642DF7DB00256420B4FBF0F080B270BD1A
:101CD000F0B588B0044600250026002108E05448ED
:101CE00000EBC10030F814002DF81100481CC1B2FF
:101CF0000F29F4DB002215E011460FE03DF811003A
:101D00003DF81270B84207DD3DF811603DF8120051
:101D10002DF811002DF81260481CC1B20F29EDDB1F
:101D2000501CC2B20F2AE7DB022304E03DF8130087
:101D30000544581CC3B20D2BF8DB0B20B5FBF0F0AB
:101D400080B208B0F0BD2DE9F0412DED048B0546C1
:101D50000E4600240AE055F8240055F82410384AAD
:101D6000126800FB012036490860641CB442F2DBB3
:101D70003348006890FBF6F7384604F092FB41ECDC
:101D8000190BB0EE490AF0EE690A03F0CDFCB0EE93
:101D9000408AF0EE608A51EC180B04F053FB29499D
:101DA000086000202649086026480068BDEC048BC6
:101DB000BDE8F08130B504460D462046FFF788FFA8
:101DC000214941F82400084650F824001F4951F8E1
:101DD0002410884212DA1D4850F824001A4951F89C
:101DE0002410401A6843642190FBF1F0174951F820
:101DF0002410081A154941F8240011E0124850F83F
:101E00002400124951F82410401A6843642190FBC1
:101E1000F1F00E4951F8241008440C4941F824000F
:101E20000A4850F8240030BD050040004C20014015
:101E30007C00002010640240000802405000002096
:101E4000580000205C00002034010020F400002035
:101E500010B504466FF0040000F092F9E11704EBAE
:101E60005171C1F3C701394A11701046007800EB77
:101E70004001C1EBC0104FF6FF7101EAC0003449C8
:101E8000088010BD0146314A12784A434FF0E023E2
:101E90005A6100229A611A46126942F001021A61DF
:101EA00000BF4FF0E022106900F001021AB100F407
:101EB0008032002AF5D04FF0E022126922F00102B0
:101EC0004FF0E0231A6100229A6170470146204AD0
:101ED00012884A434FF0E0235A6100229A611A4661
:101EE000126942F001021A6100BF4FF0E02210694E
:101EF00000F001021AB100F48032002AF5D04FF050
:101F0000E022126922F001024FF0E0231A61002260
:101F10009A61704770B504464FF4077094FBF0F077
:101F2000C6B24FF4077094FBF0F100FB114085B28C
:101F300005E04FF40770FFF7C9FF701EC6B2002E10
:101F4000F7D115B12846FFF7C1FF70BD6000002032
:101F50006200002000BF704700BF4C4A128802F0A8
:101F60004002002AF9D0C2B2484B9A80704710B59F
:101F700088B004460121084600F044FC01211020ED
:101F800000F09AFC07220921414800F028FA0722B4
:101F90000A213F4800F023FA4FF4C0600690022067
:101FA0008DF81C008DF81D0000208DF81E0001200A
:101FB0008DF81F0006A9364800F086F9029400202B
:101FC000ADF80C00ADF80E00ADF81000ADF814003F
:101FD0000C20ADF8120002A92C4800F0CEFD012122
:101FE0002A4800F052FE012240F22551274800F015
:101FF00002FF25208DF8040003208DF805008DF8E0
:10200000060001208DF8070001A800F06CF808B068
:1020100010BD10B540F225511C4800F027FF10B349
:102020001A4800F061FEC4B21A48008800F400406B
:10203000C8B91848008800F4804060B10A2C03D069
:1020400000201449088020E01248008840F4004035
:102050001049088019E00D2C06D10E48008840F484
:1020600080400C49088010E00A480088C0F30D0049
:1020700009490C5407480088401C06490880084656
:102080000088C72801DD0020088010BD0010014035
:1020900000000240680000207401002009488047C9
:1020A00009480047FEE7FEE7FEE7FEE7FEE7FEE73A
:1020B000FEE7FEE7FEE7FEE704480549054A064B52
:1020C00070470000E103000889010008A002002019
:1020D000A0080020A0040020A004002032490143F1
:1020E000324A1160704770B5002100230F22C47876
:1020F0001CB32E4C246804F4E064C4F5E064C4F31B
:102100000721C1F10404E3B20A4144789C40E1B2E2
:102110008478144021430C07210E254C0578615525
:10212000047804F01F050124AC4005786D11AD0062
:1021300005F1E025C5F8004109E0047804F01F0529
:102140000124AC401B4D0678761145F8264070BD41
:10215000194A0A400243154B1B1F1A60704739B1D8
:10216000124A121D12680243104B1B1D1A6006E032
:102170000E4A121D126882430C4B1B1D1A607047D9
:10218000042808D14FF0E021096941F004014FF023
:10219000E022116107E04FF0E021096921F004011C
:1021A0004FF0E022116170470000FA050CED00E0ED
:1021B00000E400E080E100E080FFFF1F10B504466E
:1021C0009848844208D10121084600F086FB00218E
:1021D000012000F082FB76E09348844208D101217F
:1021E000022000F07AFB0021022000F076FB6AE07A
:1021F0008E48844208D10121042000F06EFB0021AA
:10220000042000F06AFB5EE08948844208D1012185
:10221000082000F062FB0021082000F05EFB52E085
:102220008448844208D10121102000F056FB00218F
:10223000102000F052FB46E07F48844208D1012183
:10224000202000F04AFB0021202000F046FB3AE06D
:102250007A48844208D10121402000F03EFB002151
:10226000402000F03AFB2EE07548844208D101215D
:10227000802000F032FB0021802000F02EFB22E0C5
:102280007048844208D10121801500F026FB00210E
:10229000A01500F022FB16E06B48844208D1012112
:1022A000401500F01AFB0021601500F016FB0AE053
:1022B0006648844207D10121001500F00EFB002181
:1022C000201500F00AFB10BDF0B50A4600210023DE
:1022D000002400BF3DE0012505FA01F3156805EA79
:1022E00003049C4234D105684F000326BE40B54329
:1022F000056015794E00B5400668354305601579CF
:10230000012D02D01579022D16D185684F000326C4
:10231000BE40B543856055794E00B540866835436B
:102320008560456801268E40B543456045689679CD
:102330008E40B6B235434560C5684F000326BE40A7
:10234000B543C560D5794E00B540C6683543C56014
:10235000491C1029BFD3F0BD4FF6FF710160002169
:10236000017141718171C171704708B54FF48032BC
:102370000092009A0A430092009AC261C161009AD9
:10238000C261C2690092C269009208BD0246002083
:1023900013690B400BB1012000E00020704701469B
:1023A000086980B270470246002053690B400BB1A8
:1023B000012000E0002070470146486980B2704764
:1023C00001837047418370470AB1018300E0418374
:1023D00070474161704742694A4042617047F0B5B9
:1023E000002300244D07ED0E02FA05F3CE1000F194
:1023F000200555F826504E07F70E0F26BE40B54370
:10240000CF1000F1200646F82750CE1000F120052D
:1024100055F8265045EA0304CE1000F1200545F892
:102420002640F0BD000002400004024000080240C7
:10243000000C02400010024000140240001802404C
:10244000001C0240002002400024024000280240FC
:10245000F948006840F00100F74908600020F6499B
:1024600008310860F4480068F4490840F2490860FF
:10247000F348091D0860F348EF4984310860F048CB
:102480001038091D0860EC48006820F48020EA49F3
:1024900008600020E8490C310860E7498C31086089
:1024A00070470021E44A921C117011460870704771
:1024B00010B501460022002300204A11012A02D152
:1024C000DD4C236808E0022A03D1DB4C703423681A
:1024D00002E0D94C7434236801F01F0201249440B7
:1024E0001C400CB1012000E0002010BD38B50020D8
:1024F00000900024002500BF3120FFF7D9FF0546DA
:102500000098401C00900098B0F5A04F01D0002D1D
:10251000F2D03120FFF7CCFF08B1012400E0002405
:10252000204638BD01460020C34A106820F0F8005C
:1025300040EAC10010607047C3490860704700213D
:10254000BD4A703211701170012802D004280AD1DE
:1025500004E00121B84A7032117005E00521B64A45
:102560007032117000E000BF00BF7047B7490860CB
:10257000704770B5049C41EA82150126C6EB5306EC
:1025800045EA0645054345EA0465AB4E361D356010
:1025900070BDAD4908667047820142EA0172A64BE0
:1025A00084331A607047A8498866704710B5830164
:1025B00043EA016343EA02739F4C8834236010BDF1
:1025C000A14908677047A049C864704702460020C7
:1025D000994B0833186820F0EC6042EA0103184375
:1025E000954B08331860704702460020924B083321
:1025F000186820F0784042EA010318438E4B0833F4
:1026000018607047014600208B4A0832106820F09D
:10261000030008431060704787480830006800F0E6
:102620000C00704701460020834A0832106820F0F1
:10263000F000084310607047014600207E4A0832CF
:10264000106820F4E05008431060704701460020F5
:10265000794A0832106820F4604040EAC1001060F6
:102660007047F0B500210022002402250026022335
:10267000714F08373F6807F00C0121B1042905D0DC
:10268000082937D105E0724F076036E0714F0760C7
:1026900033E0694F3F1D3F68C7F38056664F3F1DCB
:1026A0003F6807F03F036EB16A4FB7FBF3F7DFF8FF
:1026B00088C10CF1040CDCF800C0CCF3881C07FBCB
:1026C0000CF40CE0624FB7FBF3F7DFF86CC10CF1D0
:1026D000040CDCF800C0CCF3881C07FB0CF4564F4C
:1026E0003F1D3F68C7F301477F1C7D00B4FBF5F732
:1026F000076002E0564F076000BF00BF4E4F08372B
:102700003F6807F0F0010909534F7A5C0768D7402A
:102710004760494F08373F6807F4E051890A4E4F38
:102720007A5C4768D7408760434F08373F6807F4B3
:102730006041490B484F7A5C4768D740C760F0BD9D
:10274000002100F44072B2F5407F0AD13A4A0832C3
:10275000116821F4F811414A02401143364A083207
:102760001160354A70321268C0F30B031A43324BC2
:1027700070331A60704735494439086070473349EF
:1027800040390860704736490860704701460020AC
:10279000294A8C32106820F01F004A1E1043264A36
:1027A0008C321060704701460020234A8C3210683A
:1027B00020F4F8504A1E40EA02201F4A8C32106072
:1027C0007047014600201C4A8C32106820F44010EB
:1027D00008431060704701460020174A8C32106889
:1027E00020F4400008431060704701460020124A60
:1027F0008C32106820F4403008431060704719494B
:102800000860704739B10C4A3032126802430A4BF3
:1028100030331A6006E0084A303212688243064BB1
:1028200030331A607047F9B1034A343212680243F8
:10283000014B34331A601CE000380240FFFFF6EA17
:10284000103000240030002000004742800E474234
:102850000024F40000127A006A000020FFFCFF0F41
:102860005C014742E01147428F4A126882438E4B17
:102870001A60704739B18C4A121D126802438A4BA4
:102880001B1D1A6006E0884A121D12688243864B9F
:102890001B1D1A60704739B1834A0C32126802431B
:1028A000814B0C331A6006E07F4A0C321268824377
:1028B0007D4B0C331A60704739B17B4A1032126875
:1028C0000243794B10331A6006E0774A10321268DF
:1028D0008243754B10331A60704739B1724A243AFB
:1028E00012680243704B243B1A6006E06E4A243A99
:1028F000126882436C4B243B1A60704739B16A4AB4
:10290000203A12680243684B203B1A6006E0664A90
:10291000203A12688243644B203B1A60704739B1F9
:10292000614A1C3A126802435F4B1C3B1A6006E086
:102930005D4A1C3A126882435B4B1C3B1A6070472D
:1029400039B1594A143A12680243574B143B1A6082
:1029500006E0554A143A12688243534B143B1A60FE
:10296000704739B1504A103A126802434E4B103B3F
:102970001A6006E04C4A103A126882434A4B103BF8
:102980001A60704739B1484A1C3212680243464BFC
:102990001C331A6006E0444A1C3212688243424BE0
:1029A0001C331A60704739B13F4A20321268024323
:1029B0003D4B20331A6006E03B4A203212688243C6
:1029C000394B20331A60704739B1374A24321268C4
:1029D0000243354B24331A6006E0334A243212682E
:1029E0008243314B24331A60704739B12E4A2C325E
:1029F000126802432C4B2C331A6006E02A4A2C3210
:102A000012688243284B2C331A60704739B1264A2A
:102A1000303212680243244B30331A6006E0224AF7
:102A2000303212688243204B30331A6070470128DD
:102A300008D11D493C31096841F008011A4A3C326D
:102A4000116007E018493C31096821F00801164A75
:102A50003C321160704739B1134A273A1278024369
:102A6000114B273B1A7006E00F4A273A127882432F
:102A70000D4B273B1A7070470B484030006840F000
:102A80008070094940310860704701460020064ABD
:102A9000283A12680A400AB1012000E0002070477D
:102AA00001492639087070473438024010B5044691
:102AB000FA48844208D101211020FFF752FF00217B
:102AC0001020FFF74EFF57E0F548844209D101215D
:102AD0004804FFF735FF00214FF40030FFF730FFC7
:102AE0004AE0F048844209D101218804FFF728FF19
:102AF00000214FF48020FFF723FF3DE0EA488442A5
:102B000009D10121C804FFF71BFF00214FF4002069
:102B1000FFF716FF30E0E548844209D1012108059E
:102B2000FFF70EFF00214FF48010FFF709FF23E0AD
:102B3000DF48844208D101212020FFF712FF002145
:102B40002020FFF70EFF17E0DA48844209D1012167
:102B50008807FFF7F5FE00214FF08040FFF7F0FEF9
:102B60000AE0D548844207D101214005FFF7E8FE7D
:102B700000216005FFF7E4FE10BD2DE9FF47054683
:102B80000E460024A14600BFA046B08900B100BF98
:102B90002C8A24F44054F08804432C82AC8941F2FE
:102BA0000C608443B0883189084371890843044329
:102BB000AC81AC8A24F44074B0890443AC8268468A
:102BC000FFF74FFDB548854202D0B948854202D192
:102BD000DDF80C9001E0DDF80890A88900F40040D1
:102BE00040B109EBC90000EB091031684900B0FBA6
:102BF000F1F707E009EBC90000EB09103168890023
:102C0000B0FBF1F76420B7FBF0F004012009642168
:102C100001FB1078A88900F4004040B1322000EB9D
:102C2000C800B0FBF1F000F00700044308E03220D8
:102C300000EB08106421B0FBF1F000F00F0004433A
:102C40002C81BDE8FF874FF416510160002181807F
:102C5000C18001810C21418100218181704710B523
:102C600002460020108A20F470600B884C882343B1
:102C70008C882343CC8823431843108210BD002145
:102C8000018041808180C180704721B1828942F4F6
:102C90000052828104E082894DF6FF731A408281DE
:102CA0007047028B02F47F420283028B0A43028345
:102CB000704721B1828942F40042828103E0828917
:102CC000C2F30E028281704721B1828A42F400620F
:102CD000828204E0828A4FF2FF731A408282704738
:102CE000C1F308028280704701468888C0F308005B
:102CF0007047028A4FF6F0731A400282028A0A4332
:102D00000282704721B1828942F00202828104E08E
:102D100082894FF6FD731A408281704782894FF293
:102D2000FF731A40828182890A4382817047028A36
:102D30004FF6DF731A400282028A0A43028270470A
:102D400021B1028A42F48042028204E0028A4BF6F8
:102D5000FF731A4002827047818941F0010181812D
:102D6000704721B1828A42F00802828204E0828A9E
:102D70004FF6F7731A4082827047028BD2B20283F9
:102D8000028B42EA01220283704721B1828A42F01B
:102D90002002828204E0828A4FF6DF731A40828228
:102DA000704721B1828A42F01002828204E0828A56
:102DB0004FF6EF731A4082827047828A4FF6FB7398
:102DC0001A408282828A0A438282704721B1828AB3
:102DD00042F00202828204E0828A4FF6FD731A40BA
:102DE000828270471AB1838A0B43838202E0838A0E
:102DF0008B4383827047F0B50346002400260025EC
:102E0000002040F66A17B94200D100BF1846C1F34E
:102E1000421401F01F06012707FA06F5012C01D123
:102E20000C3004E0022C01D1103000E014301AB153
:102E300007682F43076002E00768AF430760F0BDF3
:102E400002460020B1F5007F00D100BF13880B407F
:102E50000BB1012000E00020704701F40072B2F5D0
:102E6000007F00D100BFCA430280704770B50246A0
:102E7000002400230025002040F66A16B14200D14C
:102E800000BFC1F3421501F01F03012606FA03F348
:102E9000012D13D19689334017E000000010014046
:102EA0000044004000480040004C004000500040FA
:102EB0000014014000780040007C0040022D02D147
:102EC000168A334001E0968A33400C12012606FA36
:102ED00004F41688344013B10CB1012000E0002046
:102EE00070BD10B50022002340F66A14A14200D143
:102EF00000BF0A1201249440A3B2DC43048010BD39
:102F000010B501218803FFF72CFD00214FF480400C
:102F1000FFF727FD10BD1C49086070471B49086278
:102F2000704730B500228B071C0F0F2303FA04F201
:102F3000154B08338C1053F824309343124C08344B
:102F40008D1044F8253023468C1053F824308C071C
:102F5000240F00FA04F423430B4C08348D1044F87A
:102F6000253030BD0949DC310860704708490860E8
:102F70007047002004492031096801F4807109B1CB
:102F8000012000E000207047003801400000274287
:102F90000004274210B501210802FFF7E2FC0021DE
:102FA0004FF48070FFF7DDFC10BD30B50246002005
:102FB00000235068F84C20400D790C6844EA052441
:102FC000204350609068F54C2040D1E903542C43D5
:102FD0008D682C434D7944EA450420439060D06AC3
:102FE00020F470000C7D641EE4B2234340EA0350D9
:102FF000D06230BD00210160017141718160C1600A
:1030000001610121017570470021E54A1168E54A17
:103010001140D0E900231A4383681A43C3681A4356
:103020001143E14AC2F80413704700210160416076
:103030008160C160704721B1826842F00102826004
:1030400003E0826822F00102826070470A46002194
:103050004168D64B1940114341607047416282621A
:1030600070470A460021416821F01F011143416069
:10307000704738B1CA49096841F40001CA4AC2F828
:10308000041306E0C649096821F40001C64AC2F8E3
:103090000413704738B1C249096841F48001C24A3B
:1030A000C2F8041306E0BE49096821F48001BE4A53
:1030B000C2F804137047F0B504460D460020002105
:1030C000092D11DDE068A5F10A0606EB4607072683
:1030D00006FA07F18843A5F10A0606EB460603FA4D
:1030E00006F10843E0600CE0206905EB4507072680
:1030F00006FA07F1884305EB450603FA06F1084393
:103100002061072A0FDA606B561E06EB86071F2622
:1031100006FA07F18843561E06EB860605FA06F105
:103120000843606322E00D2A0FDA206BD61F06EBFE
:1031300086071F2606FA07F18843D61F06EB860688
:1031400005FA06F10843206310E0E06AA2F10D06DB
:1031500006EB86071F2606FA07F18843A2F10D0643
:1031600006EB860605FA06F10843E062F0BD8168C9
:1031700041F0804181607047014600208A6802F07A
:1031800080420AB1012000E00020704721B182682E
:1031900042F48062826003E0826822F4806282608E
:1031A000704721B1826842F00202826003E08268C7
:1031B00022F002028260704710B50A460021002307
:1031C000416821F46041531E41EA4331416010BD22
:1031D00021B1426842F40062426003E0426822F496
:1031E0000062426070470146C86C80B270476C480C
:1031F000001D0068704721B1826842F480728260CD
:1032000003E0826822F480728260704721B1826894
:1032100042F40072826003E0826822F400728260ED
:10322000704738B15E49096841F400515E4AC2F8FE
:10323000041306E05A49096821F400515A4AC2F8B9
:1032400004137047F0B504461546002000220026FE
:10325000092911DDE068A1F10A0707EB470C0727F0
:1032600007FA0CF29043A1F10A0707EB470703FAAC
:1032700007F21043E0600CE0206901EB410C0727E6
:1032800007FA0CF2904301EB410703FA07F21043EF
:103290002061A06BC0F30156EF1C06F1010CA7EBF7
:1032A0000C0707EB870C1F2707FA0CF29043EF1C63
:1032B00006F1010CA7EB0C0707EB870701FA07F2F1
:1032C0001043A063F0BD10B50A4600210023816BB6
:1032D00021F44011531E41EA0351816310BD08B52A
:1032E000002300930090009B0B440093009B1A6006
:1032F00008BD0A460021816821F4702111438160D4
:1033000070470A460021816821F440111143816011
:103310007047816841F48001816070470146002058
:103320008A6802F480020AB1012000E000207047A0
:1033300021B1426842F48062426003E0426822F4B4
:1033400080624260704721B1426842F4805242601C
:1033500003E0426822F480524260704708B502469A
:1033600000200090009201F12800009B184400907A
:103370000098006880B208BD10B50B460021D9B294
:10338000012404FA01F11AB144680C43446002E0DC
:1033900044688C43446010BDFFFEFFFCFDF7FFC096
:1033A00004230140E030FCFF00200140FFFD3FFF0F
:1033B0000246002013680B400BB1012000E0002002
:1033C0007047CA430260704770B502460020002370
:1033D00000240B12556801268E4005EA0604156884
:1033E0001D4015B10CB1012000E0002070BD00228D
:1033F0000A12D34303607047016821F001010160A4
:103400000021016041608160C16001612121416151
:10341000DB49884204D13D21D94A103A91608CE0C1
:10342000D7491831884205D14FF47461D44A103A13
:10343000916082E0D2493031884205D14FF4741155
:10344000CF4A103A916078E0CD494831884205D1A1
:103450004FF07461CA4A103A91606EE0C849603119
:10346000884204D1C749C64A103AD16065E0C449D0
:103470007831884204D1C449C14A103AD1605CE035
:10348000BF499031884204D1C049BD4A103AD16049
:1034900053E0BB49A831884205D14FF03D51B84AAD
:1034A000103AD16049E0BA49884204D13D21B84A76
:1034B000083A116041E0B6491831884205D14FF40D
:1034C0007461B34A083A116037E0B149303188423B
:1034D00005D14FF47411AE4A083A11602DE0AC49A1
:1034E0004831884205D14FF07461A94A083A116009
:1034F00023E0A7496031884204D1A249A44A121F9F
:1035000011601AE0A2497831884204D19E49A04A4C
:10351000121F116011E09E499031884204D19B49ED
:103520009B4A121F116008E09949A831884204D1D2
:103530004FF03D51964A121F1160704710B500229E
:103540000268944B1A40CC680B6823434C692343B0
:103550008C692343CC6923430C6A23434C6A23437D
:103560008C6A23434C6B23438C6B23431A430260C6
:10357000426922F00702D1E90B3423431A43426126
:103580000B6943604B6883608B68C36010BD00218A
:10359000016041608160C160016141618161C1611F
:1035A000016241628162C16201634163816370476C
:1035B00021B1026842F00102026003E0026822F0D9
:1035C00001020260704721B1026842F400420260C9
:1035D00003E0026822F400420260704721B10268F1
:1035E00042F02002026003E0026822F02002026042
:1035F0007047416070470146486880B2704722B109
:10360000036843F40023036003E0036823F400230A
:1036100003600161704721B1026842F480220260B8
:1036200003E0026822F48022026070470AB101615F
:1036300000E0C1607047014600200A6802F40022E1
:103640000AB1012000E000207047014600200A680E
:1036500002F001020AB1012000E00020704701469B
:1036600000204A6902F03800704730B503460A4628
:1036700000200024464DAB4202D24149103901E0FE
:103680004349103902F000550DB14C6800E00C6858
:10369000414D2C4004EA02050DB1012000E000205C
:1036A00030BD02463A4B9A4202D23548103801E00A
:1036B0003748103801F000531BB1374B0B40C36043
:1036C00002E0354B0B408360704710B501F080037A
:1036D0004BB122B1436943F08003436103E0436986
:1036E00023F08003436180290BD02AB1036801F0E5
:1036F0001E042343036004E0036801F01E04A34397
:10370000036010BD70B50246002000240025204E45
:10371000B24202D21A4B103B01E01D4B103B1F4E30
:103720000E4036B11E2606EAD124166806EA0405C4
:1037300002E0566906F0800501F000560EB15C68A3
:1037400000E01C68144E344004EA010616B10DB1C5
:10375000012000E0002070BD02460D4B9A4202D2CB
:103760000748103801E00A48103801F000531BB137
:10377000094B0B40C36002E0074B0B40836070476E
:10378000106002403D000020400F002000003D205E
:10379000106402403F801CF07D0F7D0F3C0F3C0FFA
:1037A000002041490860091D0860091D0860091DC5
:1037B00008603E483C4914310860704700213A498E
:1037C0008279002A3AD00A46126803689A430B4667
:1037D0001A600A1D126803689A430B1D1A60027969
:1037E00011440A6803681A430A602F4A08321268B3
:1037F00003689A432C4B08331A601A1D1268036839
:103800009A43294B0C331A604279102A0ED11A1FA1
:10381000126803681A43244B08331A601A1D126891
:1038200003681A43204B0C331A600DE01E4942799D
:1038300011440A6803681A430A6005E002791144DA
:103840000A6803689A430A607047002101600171A9
:103850000C214171002181717047134910310968B1
:103860000143114A103211607047014600200E4A90
:10387000143212680A400AB1012000E000207047AB
:10388000094914310860704701460020064A143285
:1038900012680A400AB1012000E000207047024986
:1038A0001431086070470000003C0140FFFF7F00BA
:1038B00010B50446FE48844208D101210846FFF7AE
:1038C00050F800210120FFF74CF89DE0B4F1804F43
:1038D00008D101210846FFF733F800210120FFF746
:1038E0002FF891E0F348844208D101210220FFF72C
:1038F00027F800210220FFF723F885E0EE488442F4
:1039000008D101210420FFF71BF800210420FFF754
:1039100017F879E0E948844208D101210820FFF72F
:103920000FF800210820FFF70BF86DE0E44884420F
:1039300008D101211020FFF703F800211020FEF725
:10394000FFFF61E0DF48844208D101212020FEF71B
:10395000F7FF00212020FEF7F3FF55E0DA4884420C
:1039600008D101210220FEF7FCFF00210220FEF712
:10397000F8FF49E0D548844209D101210804FEF747
:10398000F0FF00214FF48030FEF7EBFF3CE0D04821
:10399000844209D101214804FEF7E3FF00214FF4DE
:1039A0000030FEF7DEFF2FE0CA48844209D1012132
:1039B0008804FEF7D6FF00214FF48020FEF7D1FFE8
:1039C00022E0C548844208D101214020FEF7B8FF1B
:1039D00000214020FEF7B4FF16E0C048844208D121
:1039E00001218020FEF7ACFF00218020FEF7A8FF18
:1039F0000AE0BB48844207D101218015FEF7A0FFF1
:103A00000021A015FEF79CFF10BD00220288A84BE4
:103A100098420ED0AC4B98420BD0B0F1804F08D0FA
:103A2000A44B984205D0A44B984202D0A34B984295
:103A300004D14FF68F731A404B881A43A04B98421B
:103A400007D0A04B984204D04FF6FF431A400B8991
:103A50001A4302804B68C3620B880385944B9842DB
:103A600002D0994B984201D18B7A0386012383823D
:103A700070474FF0FF31416000210180018141809A
:103A8000817270470185828270470A460021018851
:103A90004FF68F73194011430180704741627047A0
:103AA000C16270470146486A70470146088D7047F9
:103AB00021B1028842F00202028004E002884FF63F
:103AC000FD731A400280704721B1028842F004025F
:103AD000028004E002884FF6FB731A4002807047B0
:103AE00021B1028842F08002028004E002884FF691
:103AF0007F731A400280704702884FF6F7731A40AE
:103B0000028002880A430280704702884FF6FF4312
:103B10001A40028002880A430280704721B102885D
:103B200042F00102028004E002884FF6FE731A4060
:103B30000280704770B5002400220023058C4FF6E8
:103B4000FE7635400584028C8388048B4FF68F7592
:103B50002C40B51E2C400D882C43751E2A408D89A3
:103B60002A434D882A43524DA84202D0564DA842BE
:103B700013D14FF6F7752A40CD892A434FF6FB75CE
:103B80002A408D882A434FF6FF652B404FF6FF559C
:103B90002B400D8A2B434D8A2B43838004838D68F1
:103BA0004563028470BD70B5002400220023058C9B
:103BB0004FF6EF7635400584028C8388048B48F6F7
:103BC000FF752C404FF6FF452C400D884FF6FF76D1
:103BD00006EA05252C434FF6DF752A408D8906EA53
:103BE00005152A434D8806EA05152A43304DA8429B
:103BF00002D0354DA8421DD14FF67F752A40CD89A0
:103C00004FF6FF7606EA05152A434FF6BF752A40A0
:103C10008D8806EA05152A434FF6FF352B404FF2F3
:103C2000FF752B400D8A06EA85052B434D8A06EA6F
:103C300085052B43838004838D688563028470BD72
:103C400070B5002400220023058C4FF6FF66354036
:103C50000584028C8388848B4FF68F752C404FF639
:103C6000FC752C400D882C434FF6FF552A408D895A
:103C70004FF6FF7606EA05252A434D8806EA052514
:103C80002A430B4DA84202D00F4DA84238D14FF223
:103C9000FF752A40CD894FF6FF7606EA05252A43AF
:103CA0004FF6FF352A408D8806EA05252A4319E09C
:103CB000000001400004004000080040000C0040EB
:103CC000001000400014004000040140004001408A
:103CD000004401400048014000180040001C004022
:103CE000002000404EF6FF752B404DF6FF752B402F
:103CF0000D8A06EA05152B434D8A06EA05152B4366
:103D0000838084838D68C563028470BD70B5002292
:103D100000230024058C4EF6FF7635400584038C85
:103D20008488828B48F6FF752A404FF6FF452A406B
:103D30000D884FF6FF7606EA05252A434DF6FF75F6
:103D40002B408D8906EA05352B434D8806EA05355B
:103D50002B43FE4DA84202D0FD4DA84208D14BF6A0
:103D6000FF752C400D8A4FF6FF7606EA85152C4329
:103D7000848082838D680564038470BD0021018086
:103D80004180818081608181C1810182418270474F
:103D900070B50346002000241846183001258D40D8
:103DA000ACB21D8CA5431D8409B108290AD100EBD2
:103DB000610005684FF68F7635400560056815434C
:103DC00005600FE00D1FC5F34E052844056848F651
:103DD000FF763540056005684FF6FF7606EA022655
:103DE0003543056070BD4163704781637047C163AF
:103DF0007047016470470A460021018B4FF68F73AC
:103E000019401143018370470A460021018B48F68F
:103E1000FF7319404FF6FF7303EA0223194301832E
:103E200070470A460021818B4FF68F73194011436A
:103E3000818370470A460021818B48F6FF73194041
:103E40004FF6FF7303EA02231943818370470A4642
:103E50000021018B4FF6F77319401143018370471E
:103E60000A460021018B4FF2FF7319404FF6FF7392
:103E700003EA02231943018370470A460021818B1C
:103E80004FF6F77319401143818370470A460021AA
:103E9000818B4FF2FF7319404FF6FF7303EA022341
:103EA0001943818370470A460021018B4FF6FB734B
:103EB00019401143018370470A460021018B4FF6D8
:103EC000FF3319404FF6FF7303EA022319430183BE
:103ED00070470A460021818B4FF6FB73194011434E
:103EE000818370470A460021818B4FF6FF331940CA
:103EF0004FF6FF7303EA02231943818370470A4692
:103F00000021018B4FF67F731940114301837047E5
:103F10000A460021018BC1F30E014FF6FF7303EA3D
:103F200002231943018370470A460021818B4FF613
:103F30007F7319401143818370470A460021818BAA
:103F4000C1F30E014FF6FF7303EA02231943818385
:103F500070470A460021018C4FF6FD73194011434A
:103F6000018470470A460021018C4FF6F77319400F
:103F70001143018470470A460021018C4FF6DF731C
:103F800019404FF6FF7303EA021319430184704787
:103F90000A460021018C4FF67F7319404FF6FF73DC
:103FA00003EA02131943018470470A460021018C79
:103FB0004FF6FF5319404FF6FF7303EA02231943EC
:103FC000018470470A460021018C4FF2FF731940AB
:103FD0004FF6FF7303EA02231943018470470A4630
:103FE0000021018C4DF6FF7319404FF6FF7303EA71
:103FF000023319430184704730B5002301248C40FB
:10400000A3B2048C9C430484048C02FA01F5ADB283
:104010002C43048430BD30B5002304248C40A3B26B
:10402000048C9C430484048C02FA01F5ADB22C4349
:10403000048430BD828B4FF2FF331A408283828B1F
:104040004FF6FF7303EA01231A4382837047F0B5EA
:104050000C461546002100220026078C4EF6FF7CF8
:1040600007EA0C070784818B028C4FF6FF7707EA7B
:10407000043640F6FF4739404FF6FF7707EA052739
:1040800039434FF6FF7707EA0337394345F6FF77A1
:104090003A4046F480573A4381830284F0BD828BD4
:1040A0004FF6F3731A408283828B0A4382837047F0
:1040B000F0B50C461546002100220026078C4FF66D
:1040C000FF6C07EA0C070784818B028C4FF6FF77A1
:1040D00007EA04264FF60C7739404FF6FF7707EAD8
:1040E00003172F4339434FF2FF573A4046F4807786
:1040F0003A4381830284F0BD028B4FF2FF331A40B2
:104100000283028B4FF6FF7303EA01231A430283F3
:104110007047F0B50C461546002100220026078C9A
:104120004FF6EF7C07EA0C070784018B028C4FF6F1
:10413000FF7707EA041640F6FF4739404FF6FF774E
:1041400007EA033739434FF6FF7703E000000140E9
:104150000004014007EA052739434FF65F773A40EC
:1041600046F010073A4301830284F0BD028B4FF6FC
:10417000F3731A400283028B0A4302837047F0B53F
:104180000C46154600210022068C4FF6FE773E4075
:104190000684018B028C4FF60C7631407E1C06EAB9
:1041A00003162E4331434FF6F576324044F00106B4
:1041B000324301830284F0BD70B505460C46208869
:1041C00050B92389A28861882846FFF7D8FFE18883
:1041D0002846FFF7CBFF25E0208804280AD1238951
:1041E000A28861882846FFF794FFE1882846FFF7F8
:1041F00083FF17E0208808280AD12389A2886188D4
:104200002846FFF755FFE1882846FFF748FF09E0F9
:104210002389A28861882846FFF719FFE18828468C
:10422000FFF708FF70BD00210180418001218180DE
:104230000021C180018170472DE9F04105460C46FF
:1042400000260127608808B9022600E00026A08821
:10425000012801D1022700E001272088A0B9238985
:10426000A28861882846FFF78AFFE1882846FFF781
:104270007DFF23893A4631462846FFF74AFFE18809
:104280002846FFF739FF13E02389A2886188284672
:10429000FFF73FFFE1882846FFF72EFF23893A46C4
:1042A00031462846FFF76BFFE1882846FFF75EFF9F
:1042B000BDE8F0810146486B70470146886B704746
:1042C0000146C86B70470146086C70470A884B88E6
:1042D0001A438B881A43CB881A430B891A434B899C
:1042E0001A438B891A43A0F84420704700210180AB
:1042F00041808180C180018141818181704731B1DC
:10430000B0F8442042F40042A0F8442005E0B0F8A0
:104310004420C2F30E02A0F84420704721B18288E5
:1043200042F00402828004E082884FF6FB731A4058
:104330008280704721B1828842F00102828004E0CD
:1043400082884FF6FE731A40828070471AB18389C3
:104350000B43838102E083898B4383817047818291
:10436000704702460020138A0B400BB1012000E089
:1043700000207047CA430282704730B502460020D1
:1043800000230024158A05EA0103958905EA010442
:1043900013B10CB1012000E0002030BDCA430282FD
:1043A000704741EA0203A0F8483070471AB1838988
:1043B0000B43838102E083898B438381704721B162
:1043C000828842F00802828004E082884FF6F77308
:1043D0001A408280704701894FF6F87211400181BE
:1043E00070470A46002101894FF68F731940114327
:1043F0000181704730B504460D4629462046FFF737
:10440000F0FF208940F00700208130BD2DE9F04108
:1044100004460D4616461F46602D06D13B46012236
:1044200031462046FFF775FE05E03B460122314646
:104430002046FFF7A4FE29462046FFF7D2FF208939
:1044400040F007002081BDE8F08130B50C46002126
:104450000189C9B24FF6FF7505EA032515432543C7
:104460002943018130BD2DE9F04105460E4617462E
:104470009846002443463A4631462846FFF7E5FF72
:104480002C894FF6F870044044F007044FF68F7003
:10449000044044F070042C81BDE8F081F0B504467E
:1044A0000D4616461F463B46324629462046FFF734
:1044B000CCFF208940F480402081F0BD82884FF6F7
:1044C0008F731A40828082880A43828070470289F3
:1044D0004FF6F8731A40028102890A43028170473D
:1044E00002894FF67F731A40028102890A430281D2
:1044F0007047F0B50C4615461E46002100220023E9
:104500000189028B038C4FF6F877394021434FF62F
:10451000FC473A4040F201173A434FF6DD773B4003
:104520004FF6FF7707EA06172F433B4301810283CB
:104530000384F0BD21B1828842F08002828004E0D1
:1045400082884FF67F731A4082807047A0F850101F
:10455000704770470FB4044910B503AA029800F0E1
:1045600011FB10BC5DF814FB640000202DE9F04144
:104570000E460446002020622046E168884730B39A
:10458000252805D0D4E901219047206A401CF2E794
:10459000E168204600278847050018D0A5F14100B2
:1045A000192802D820354FF40067324629462046A4
:1045B0002760FBF723FE40B1012804D0F61D26F04A
:1045C00007060836D8E7361DD6E72846DAE7206A18
:1045D000BDE8F0812DE9F0410646002410687529F8
:1045E000314616A510D0AFF30080002802DA404211
:1045F00013A507E031688A0701D512A502E0490733
:1046000004D511A5012401E0AFF3008000210A22A6
:1046100006F1240709E0B0FBF2FCB0FBF2F302FB69
:104620001C00303078541846491C0028F3D123462A
:104630002A463046BDE8F04100F03EB800000000D8
:104640002D0000002B000000200000004FF00002B1
:1046500000B5134694469646203922BFA0E80C5078
:10466000A0E80C50B1F12001BFF4F7AF090728BF53
:10467000A0E80C5048BF0CC05DF804EB890028BFCF
:1046800040F8042B08BF704748BF20F8022B11F0F8
:10469000804F18BF00F8012B704770477047704774
:1046A000704710B500F084FA006810BD10B50446DC
:1046B00000F07EFA046010BD2DE9F0470D469946E2
:1046C0009246044600F124080168880604D5E06992
:1046D00021F01001216000E00120A84201DD471B0C
:1046E00000E00027A1697A1902EB0900081AA0610D
:1046F0002078C00602D42046AFF30080002608E0F0
:10470000D4E901211AF806009047206A401C761C63
:1047100020624E45F4DB2078C0060AD52046AFF370
:10472000008006E0D4E9012130209047206A401C37
:104730002062381EA7F10107F4DC07E0D4E901216B
:1047400018F805009047206A401C2062281EA5F139
:104750000105F3DC2046AFF300802078000602D587
:104760000220BDE8F0870120FBE770472DE9FF4FED
:104770000C461E464FF0FF378BB0D2E90001DDF842
:1047800060800A908A46C1F30A5505B93D4600216A
:1047900008464FF00000BAF1000F00F4400005DABF
:1047A00000EB80004FF4400101EA50004FEA9059BD
:1047B000B9F1010F00DDB9460A9850EA4A000ED05F
:1047C00044F61050A5F2FF3545432F14B8F1000F01
:1047D0001ED07542291E1EDDC9F100021CE0B8F191
:1047E000010F4FF0000001D0302103E0F24305E05B
:1047F0002154401CB042FBDB3046002200212154F2
:104800000B99C1F80880C1E900200FB0BDE8F08F16
:10481000BD1B6D1CDEE74A4600DA694206A800F0BF
:1048200069FA06AB93E8070003AB83E8070050463C
:104830000A9900F041FB8DE80700A0F500501F38F1
:1048400000900398002D09DD42F21F014A460844FA
:1048500003A90390684600F0A0FD08E0A0F5005011
:104860004A461F3803A90390684600F0AAFD8DE868
:1048700007000004000C03D04FF0FF30410800E0B7
:104880001046B8F1000F03D00022009215461EE03A
:10489000751E05D400F090F9303262556D1EF9D5C1
:1048A000B3460122084302D000227F1C04E0207896
:1048B000302801D100227F1E002A099786D01DE0F2
:1048C000112D07DA00F078F9303262556D1C50EA8C
:1048D0000102F5D1084302D00098C8B10EE00021D2
:1048E000681E05E0235C625C63542254401E491C30
:1048F0008142F7DBAB46A81B401E0990002004F85C
:104900000B000B98099AC0F80880C0E9002B7CE7DF
:1049100011264FF0000859E72DE9F04F884604466C
:10492000D21D22F0070191B0D1E90001CDE90A01C1
:1049300000F07DFE02460B98C00F01D02D2007E04D
:104940002068810701D52B2002E0202101EAC00068
:10495000032A099001D0072A05DB03464146204679
:1049600000F088F90BE12078800601D5E06900E0CD
:104970000620B8F1650F814606D0B8F1660F18D051
:10498000B8F1670F70D131E00020B9F1110F00903C
:1049900001DB112301E009F101030AAA01A90CA816
:1049A000FFF7E4FEDDE90C70002609F101058346FE
:1049B00047E001204B4600904FF000470AAA01A9AA
:1049C0000CA8FFF7D3FEDDE90DB00C995D4600267B
:1049D00010B909F101000D18B9EB050003D4C0F1BD
:1049E000FF3609F10105A5EB09002BE0B9F1010F34
:1049F00001DA4FF001090020B9F1110F009048468B
:104A000001DD112300E003460AAA01A90CA8FFF763
:104A1000ADFEDDE90C704D46002683462078000788
:104A20000AD4AB4500DA5D4601A8012D04DD411929
:104A300011F8011C302907D04F4502DA17F1040F95
:104A400004DA012082460FE06D1EEEE7002F02DC43
:104A5000ED1B3E4403E0781CA84200DD7D1CB81B22
:104A600000F1010A4FF000472078000703D4AA455F
:104A700001DB4FF0FF3A0021B7F1004F0DF1430881
:104A80008DF8431024D002202B23002F01DA7F421F
:104A90002D230A21021EA0F1010000DC5FB197FB6B
:104AA000F1FC97FBF1F201FB1C7C17460CF1300C7A
:104AB00008F801CDEEE7A8F101000370218809058F
:104AC00001D5452100E06521A0F1010800F8011C95
:104AD00009980FA9A1EB0807FF1D00B1012041199A
:104AE00001EBEA70A1693844081A401EA0612078E1
:104AF000C00602D42046AFF30080099828B1D4E95B
:104B000001219047206A401C20622078C00622D5EF
:104B10002046AFF300801EE0002E04DBB34502DD2B
:104B200001A8805D00E03020D4E901219047206A8F
:104B3000401C2062761CAAF101005FEA000A0AD13B
:104B400000F032F8C0680168405CD4E90121904768
:104B5000206A401C2062281EA5F10105DCDC07E06C
:104B6000D4E9012118F8010B9047206A401C20620B
:104B7000381EA7F10107F3DC2046AFF300800320C5
:104B800011B043E6074B70B50D467B4400F05FF86B
:104B90000446284600F01CF910B14FF0FF3070BDFC
:104BA000204670BDCBD3FFFF004870475C02002059
:104BB000004870473C02002030B5B0F10A024FEACD
:104BC000900E71F100034EEA817EB0EB0E0061EBB6
:104BD00091014FEA101E4EEA017E10EB0E0041EBF0
:104BE00011114FEA102E4EEA016E10EB0E0041EB50
:104BF00011214FEA104E4EEA014E10EB0E0041EB30
:104C00001141401841F100014FEAD00040EA4170E3
:104C10004FEAD10110EB80054FEA810444EA907419
:104C200044EB01046D1944EB0404521BA3414FF003
:104C3000000348BF0A3200D530BD401C41F10001DD
:104C400030BD000001694A1C02610878704700B558
:104C50008FB0CDE901310021059105497944CDE9B5
:104C6000031011466846FFF781FC0FB000BD00003D
:104C7000E5FFFFFF2DE9F0411F46044603260168CA
:104C8000072A01F4006004DB08B116A505E016A5AB
:104C900003E008B115A500E015A521F01000206083
:104CA000A069C01EA0610FB1401EA0612046AFF3F5
:104CB00000804FB1D4E9012138469047206A401C5A
:104CC0002062C01C206206E0206AFAE7D4E90121D4
:104CD00015F8010B9047761EF8D22046AFF30080FE
:104CE000BDE8F0814E414E006E616E00494E4600B7
:104CF000696E66002DE9F047814616468AB0334852
:104D000078440DC88DE80D0030487844801C03AC11
:104D10000DC884E80D0041F69B300844372190FB14
:104D2000F1F290FBF1F5A5F1800501FB12041B3CAB
:104D300002D56442012000E00020DFF890A0804608
:104D40000027FA44AAF1BE0A0DE0E00709D0324676
:104D5000684607EB47010AEB810100F032FB8DE862
:104D6000070064107F1C002CEFD1184F7F44AC3F2C
:104D700018E0E80714D007EB04100DF1180A90E8CA
:104D80000E008AE80E00C068F04201D19819089020
:104D9000324606A903A800F014FB03AB83E8070022
:104DA0006D10641C002DE4D132466946B8F1000F45
:104DB00003A802D000F0F1FA01E000F002FBC9E91B
:104DC0000001C9F808200AB0BDE8F08740430000A0
:104DD000007B00F080007047004870473C020020D4
:104DE0007546FFF7F9FFAE4605006946534620F0C9
:104DF0000700854618B020B5FDF75EF9BDE82040F4
:104E00004FF000064FF000074FF000084FF0000B86
:104E100021F00701AC46ACE8C009ACE8C009ACE839
:104E2000C009ACE8C0098D4670470446AFF3008066
:104E30002046FBF702FA00004FF0013C50F8042B2B
:104E400051F8043B9A4221D1A2EB0C03934313EA9D
:104E5000CC1317D150F8042B51F8043B9A4215D1CA
:104E6000A2EB0C03934313EACC130BD150F8042BA1
:104E700051F8043B9A4209D1A2EB0C03934313EA85
:104E8000CC13DBD04FF00000704700BFD01A01BA3E
:104E9000B1FA81F101F0180122FA01F0CB40C1F121
:104EA0002001DBB2C0B2C01A2CFA01F3D11A91432F
:104EB00011EAC311E6D170475FEA400C08BF91F0D8
:104EC000000F4FEA8C234FEAC12243EA51514FEAC7
:104ED0001C5018BF00F5F0404FEA300018BF41F0F9
:104EE00000415FEA6C5C00F02980BCF1FF3F08BF25
:104EF00040F080407047130C06BF12044FF0100CB6
:104F00004FF0000C130E04BF12020CF1080C130F2B
:104F100004BF12010CF1040C930F04BF92000CF1BA
:104F2000020CD30F04BF52000CF1010C11464FF0DC
:104F30000002A0F11F00A0EB0C00704711F0004F21
:104F400008BF704731F000413FF4D5AF0B0C06BFEE
:104F500009044FF0100C4FF0000C0B0E04BF0902B7
:104F60000CF1080C0B0F04BF09010CF1040C8B0FA2
:104F700004BF89000CF1020CCB0F04BF49000CF1F7
:104F8000010CCCF12003A0EB0C0022FA03F302FA8F
:104F90000CF241EA030100F10100704720F07F4C60
:104FA00080EA030023F07F47ACEB070303F57C5353
:104FB00000F0004003F1FF032DE980494FEA154B53
:104FC00009B44FEA144325EA0B4E24EA03480FF2D2
:104FD000042606EB132749083E785FEA320203FBFA
:104FE0000667C7F5000707FB06F64FEA54374FEA96
:104FF000D64606F1020607FB066CCCF1005C4FEAD0
:105000001C472CEA074C07FB06F40CFB06F504EBE7
:1050100015464FEA961634BF00204FF000404FEA85
:10502000D13706FB07FC4FEA1C4C0CFB0BF7D21BDD
:1050300003FB0CF761EB07010CFB0EF7B0EB07402D
:1050400072EB17420CFB08F734BFA2EB0742B2EB3E
:10505000074261EB17414FEA0C444FEA910706FB08
:1050600007FC4FEA1C4C0CFB0BF7B0EBC74072EB94
:10507000573203FB0CF734BFA2EBC742B2EBC74277
:1050800061EB57310CFB0EF7B0EBC70072EB5772B8
:105090000CFB08F734BFA2EBC702B2EBC70261EB0F
:1050A0005771039F4FEA816141EA921104EBCC04EE
:1050B0004FEAD1374FEA826206FB07FC42EA9012C0
:1050C0004FEA80604FEA1C4C0CFB0BF7D21B03FB32
:1050D0000CF761EB07010CFB0EF7B0EB074072EB2E
:1050E00017420CFB08F734BFA2EB0742B2EB0742B2
:1050F00061EB17414FEA8C554FEA910704EB9C2472
:1051000006FB07FC4FEA1C4C0CFB0BF7B0EBC7404F
:1051100072EB573203FB0CF734BFA2EBC742B2EB82
:10512000C74261EB57310CFB0EF7B0EBC70072EBD7
:1051300057720CFB08F734BFA2EBC702B2EBC702F1
:1051400061EB577115EB4C254FEA816141EA9211F1
:105150004FEA82624FEAD13742EA901206FB07FC1F
:1051600044F100044FEA80604FEA1C4C0CFB0BF743
:10517000D21B03FB0CF761EB07010CFB0EF7B0EB46
:10518000074072EB17420CFB08F734BFA2EB074253
:10519000B2EB074261EB174115EB1C154FEA813169
:1051A00041EA92414FEA823242EA90424FEA80302D
:1051B0004FEA0C7644F1000448EA03434EEA0B48F8
:1051C0004FF0000EB2EB080C71EB030724BF6246F0
:1051D00039464EEB0E0E4FF0000B0018524149417C
:1051E0004BEB0B0BB2EB080C71EB03077BF1000BE5
:1051F00024BF624639464EEB0E0E4FF0000B0018EE
:10520000524149414BEB0B0BB2EB080C71EB03071E
:105210007BF1000B24BF624639464EEB0E0E51EA7D
:10522000020718BF46F0010616EB0E7655F1000294
:1052300054F1000103D5BDE88901BDE80088BDE84F
:105240008901BDE80048B619524141EB0101A3F1C3
:105250000103704780807F7E7D7C7B7A79787776CA
:1052600076757473727171706F6E6E6D6C6C6B6A43
:105270006A696868676666656464636362616160E1
:10528000605F5F5E5E5D5D5C5C5B5B5A5A5959585E
:1052900058575756565555555454535352525251C8
:1052A000515050504F4F4F4E4E4D4D4D4C4C4C4B1E
:1052B0004B4B4A4A4A494949484848474747474665
:1052C00046464545454444444443434343424242A1
:1052D00042414141002B26D4770021D01CB54FEA32
:1052E000370703B44FF010004FF010014FF00000EB
:1052F0000FBCBDE810400BF1010BBBF1010F08BF63
:105300005FEA170722BF12F1010211F101014FF00C
:10531000004143F1000300F0004043EA0000704701
:10532000F9D35708DAE746EA064613F1400F4FEA89
:1053300016461FDD13F1200FDFBF16430A4600217A
:1053400020335B42C8D0C3F1200746EA064602FA82
:1053500007F74FEA164646EA0706C3F1200722FA86
:1053600003F201FA07F721FA03F14FF0000342EAD2
:105370000702B1E746EA020646EA06464FEA164643
:1053800046EA0106BCBF46EA0646360C4FF000036B
:105390004FF000024FF000019EE72DE9C048934610
:1053A00030B491E8380007C831EA400C48BF34EA0D
:1053B000430C03D5FFF7F2FDFFF78CFFF0BCBDE80F
:1053C00000882DE9C048934630B491E8380007C8FA
:1053D00010F0804F08BF13F0804F03D100F005F8A4
:1053E000FFF778FFF0BCBDE8008820F07F4780EA37
:1053F000030023F07F4C07EB0C03A3F57C5300F074
:105400000040A3F1FE0392F0000F00F0B38095F08E
:10541000000F00F077802DE901494FEA11404FEA73
:10542000144621EA004800FB06FC24EA064708FB74
:1054300006F607FB08F800FB07F718EB06484CEBED
:10544000164C4FEA124B18EB07484FEA15464CEB47
:10545000174022EA0B4E0BFB06FC25EA06470EFB23
:1054600006F607FB0EFE0BFB07F71EEB064E4CEB9A
:10547000164C4FF000061EEB074E4CEB174B18EB8B
:105480000B0840F1000018EB0E0B58EB000840F140
:1054900000008F1A4FF000013CBFC943661B14BFC8
:1054A000B5EB040C00213CBFC943F61B4FEA17447F
:1054B0004EEA8E0E27EA04454FEA1C4704FB0762BA
:1054C0002CEA074C05FB07F70CFB05F604FB0CFC6C
:1054D00016EB074642EB174216EB0C4642EB1C421A
:1054E0001BEB060658EB0202414146EA9E0601D537
:1054F000BDE80189B619524141EB0101A3F1010355
:10550000BDE801894FEA14454FEA114724EA0546F0
:1055100021EA074C05FB07F406FB07F70CFB06F135
:1055200005FB0CFC11EB074144EB17444FEA124713
:1055300011EB0C4144EB1C4422EA074C05FB07F23B
:1055400006FB07F70CFB06F605FB0CFC16EB074603
:1055500042EB174216EB0C4642EB1C456A1854F11D
:10556000000148BF7047B619524141EB0101A3F158
:105570000103704795F0000F37D04FEA11424FEA10
:10558000144721EA024624EA074C02FB07F106FB16
:1055900007F70CFB06F402FB0CFC14EB074441EB91
:1055A00017414FEA154714EB0C4441EB1C4125EA27
:1055B000074C02FB07F506FB07F70CFB06F602FBA0
:1055C0000CFC16EB074645EB174516EB0C4645EB76
:1055D0001C42121951F1000148BF7047B6195241DF
:1055E00041EB0101A3F1010370474FEA14454FEA73
:1055F000114724EA054621EA074C05FB07F106FBA3
:1056000007F70CFB06F24FF0000605FB0CFC12EB53
:10561000074241EB174112EB0C4251EB1C4148BFD2
:105620007047921841EB0101A3F10103704703B4E5
:1056300001984100009850EAC12018BF04204A0D8B
:1056400018BF40F0010040F2FF72B2EB515F08BF9B
:1056500040F00200012808BF052002B0704700009A
:1056600010B52F499FED2C1B2DED020B84B0059832
:1056700020F000408842DCBF00209DED040B32DDAD
:105680002849884209D1049840B94FF00100FFF73A
:105690000DF800F07DFC06B010BD05DB9DED040BA0
:1056A00000F06AFC06B010BD68469DED040B00F0EA
:1056B0007BF810F0030011D0012818D09DED021BDB
:1056C0009DED000B02281AD000F08AFA51EC100B65
:1056D00000F0A0FC06B041EC100B10BD9DED021BCC
:1056E0009DED000B012000F0AFFB06B010BD9DED5D
:1056F000021B9DED000B00F073FA06B010BD0120F7
:1057000000F0A2FB51EC100B00F084FC06B041EC61
:10571000100B10BD000000000000000000000000A1
:10572000FB21E93F0000F07F00B52DED048BB0EECA
:10573000409AF0EE609A83B051EC190B01F058F8E2
:1057400041EC180B18EE100A18EE901A8DED008B34
:10575000002818BF0120084320F00040C0F17F60FE
:1057600000F1E040C00F14D019EE101A19EE900AA3
:105770008DED009B002918BF0121084320F0004057
:10578000C0F17F6000F1E040C00F04BF0120FEF7D0
:105790008DFFB0EE480A03B0F0EE680ABDEC048B52
:1057A00000BD0000000000002DE9F14F04462DED82
:1057B000020B2DED088B8AB09FEDE70B80ED020BFD
:1057C000139EE74826F0004585420ADC9DED120B4A
:1057D000002084ED000B0AB0BDEC088B03B0BDE8DF
:1057E000F08FE0489FEDE0AB9FEDE1BBA84247DDC5
:1057F000E14F9FEDE39B9FEDE48B9DED120B53EC8E
:105800001A2B51EC100B002E1CDD01F0BDF841EC01
:10581000100BBD4208D053EC1B2B51EC100B01F0C8
:10582000B3F8C4E900010BE053EC192B51EC100B59
:1058300001F0AAF853EC182B01F0A6F8C4E9000116
:105840000120C8E700F0F2FB41EC100BBD4208D08C
:1058500053EC1B2B51EC100B00F0E8FBC4E90001EA
:105860000BE053EC192B51EC100B00F0DFFB53EC69
:10587000182B00F0DBFBC4E900014FF0FF30AAE772
:10588000C348A84279DB9DED120B51EC100B00F0E0
:105890009FFB41EC180B9FEDC00B53EC102B00F05D
:1058A00067FE9FEDBF1B53EC112B00F0BFFB00F018
:1058B000C9FD074600F0F5FD41EC190B53EC1A2B1E
:1058C00000F056FE53EC182B00F086FF41EC180B4D
:1058D00053EC1B2B51EC190B00F04AFEDFF8C8A269
:1058E00041EC100B4FEA15580125FA4453EC102BEC
:1058F00051EC180B01F048F8032DC4E900013DD02C
:10590000C1F30A5005EB4511A8EB000011398142A3
:1059100034DA0AEB051BB0EE48AA9BED000BF0EE63
:1059200068AA53EC102B51EC190B00F021FE41EC4E
:105930001B0B51EC1A0B53EC1B2B01F025F841EC1F
:10594000180B51EC1A0B53EC182B01F01DF853EC0B
:105950001B2B01F019F89BED020B41EC1A0B53ECD9
:10596000102B51EC190B00F003FE53EC1A2B01F035
:105970000BF841EC100B6D1CB8E70EE0002EA8BF31
:105980003846BFF628AF94ED000B51EC100B00F039
:1059900041FBC4E9000178421DE7C6F3130040F45F
:1059A000801EC6F30A50A0F2F530471100F01F0523
:1059B000C5F12000DDF848B008900020069007905F
:1059C0000520EC467949002D07EB0002794408BF19
:1059D00051F8221009D051F8223001EB8201AB407E
:1059E0004A68089922FA01F11943A1FB0E26A1FB8E
:1059F0000B131A449A4234BF0123002303EB060819
:105A00000CEB8003D3E901A60E448E4234BF012182
:105A1000002192448A4411B1924502D903E0924593
:105A200001D2012100E00021C3E901A641444CF864
:105A30002010011EA0F10100C4DC029800F100500A
:105A4000850F0298DDE903678000DDF8148000F01F
:105A500028FD41EC1A0B304600F03AFD9FED541B37
:105A600053EC112B00F084FD41EC1B0B384600F089
:105A70002FFD9FED511B53EC112B00F079FD41ECF4
:105A8000180B404600F024FD9FED4D1B53EC112BED
:105A900000F06EFD41EC190B51EC180B53EC192B77
:105AA00000F0C4FA53EC1B2B00F0C0FA53EC1A2B95
:105AB00000F0BCFACDE90801002008909DED080B2C
:105AC00053EC1A2B51EC100B00F05EFF53EC1B2B28
:105AD00000F05AFF53EC182B00F056FF53EC192B33
